{
  "contractName": "Lottery",
  "abi": [
    {
      "constant": true,
      "inputs": [],
      "name": "owner",
      "outputs": [
        {
          "name": "",
          "type": "address"
        }
      ],
      "payable": false,
      "stateMutability": "view",
      "type": "function",
      "signature": "0x8da5cb5b"
    },
    {
      "inputs": [],
      "payable": false,
      "stateMutability": "nonpayable",
      "type": "constructor",
      "signature": "constructor"
    },
    {
      "constant": true,
      "inputs": [],
      "name": "getSomeValue",
      "outputs": [
        {
          "name": "value",
          "type": "uint256"
        }
      ],
      "payable": false,
      "stateMutability": "pure",
      "type": "function",
      "signature": "0xa40674b7"
    },
    {
      "constant": true,
      "inputs": [],
      "name": "getPot",
      "outputs": [
        {
          "name": "pot",
          "type": "uint256"
        }
      ],
      "payable": false,
      "stateMutability": "view",
      "type": "function",
      "signature": "0x403c9fa8"
    }
  ],
  "bytecode": "0x608060405234801561001057600080fd5b50336000806101000a81548173ffffffffffffffffffffffffffffffffffffffff021916908373ffffffffffffffffffffffffffffffffffffffff16021790555061016d806100606000396000f3fe608060405260043610610057576000357c0100000000000000000000000000000000000000000000000000000000900463ffffffff168063403c9fa81461005c5780638da5cb5b14610087578063a40674b7146100de575b600080fd5b34801561006857600080fd5b50610071610109565b6040518082815260200191505060405180910390f35b34801561009357600080fd5b5061009c610113565b604051808273ffffffffffffffffffffffffffffffffffffffff1673ffffffffffffffffffffffffffffffffffffffff16815260200191505060405180910390f35b3480156100ea57600080fd5b506100f3610138565b6040518082815260200191505060405180910390f35b6000600154905090565b6000809054906101000a900473ffffffffffffffffffffffffffffffffffffffff1681565b6000600590509056fea165627a7a7230582033e5bb5cb2cb60931dd27248530f2295e0ee8397379fdc36cec8881fa2b478be0029",
  "source": "// SPDX-License-Identifier: MIT\r\npragma solidity >=0.4.22 <0.9.0;\r\n\r\ncontract Lottery {\r\n    struct BetInfo{\r\n        uint answerBlockNumber;\r\n        address payable better;\r\n        bytes16 challenges;\r\n    }\r\n\r\n    address public owner;\r\n    // 팟 머니를 저장할 곳,\r\n    uint256 private _pot;\r\n\r\n\r\n    constructor() public {\r\n        owner = msg.sender;\r\n    }\r\n\r\n    function getSomeValue() public pure returns (uint256 value){\r\n        return 5;\r\n    }\r\n\r\n    function getPot() public view returns(uint256 pot){\r\n        return _pot;\r\n    }\r\n\r\n}",
  "sourcePath": "C:/Users/woowahan/projects/Lottery-React-Web/contracts/Lottery.sol",
  "compiler": {
    "name": "solc",
    "version": "0.5.0+commit.1d4f565a.Emscripten.clang"
  },
  "schemaVersion": "3.0.1",
  "updatedAt": "2023-03-15T08:56:42.573Z",
  "devdoc": {
    "methods": {}
  },
  "userdoc": {
    "methods": {}
  }
}